:020000040800F2
:10000000F8040020C101000813110008A10F000826
:1000100011110008CD02000843150008000000007F
:1000200000000000000000000000000017110008A0
:10003000F70200080000000015110008191100085F
:10004000DB010008DB010008DB010008DB01000820
:10005000DB010008DB010008DB010008DB01000810
:10006000DB010008DB010008DB010008DB01000800
:10007000DB010008DB010008DB010008DB010008F0
:10008000DB010008DB010008DB010008DB010008E0
:10009000DB010008DB010008DB010008DB010008D0
:1000A000DB010008DB010008DB010008DB010008C0
:1000B000DB010008DB010008DB010008DB010008B0
:1000C000DB010008DB010008DB010008DB010008A0
:1000D000DB010008DB010008DB010008DB01000890
:1000E000DB010008DB010008DB010008DB01000880
:1000F000DB010008DB010008DB010008DB01000870
:10010000DB010008DB010008DB010008DB0100085F
:10011000DB010008DB010008DB010008DB0100084F
:10012000DB010008DB010008DB010008DB0100083F
:10013000DB010008DB010008DB010008DB0100082F
:10014000DB010008DB010008DB010008DB0100081F
:10015000DB010008DB010008DB010008DB0100080F
:10016000DB010008DB010008DB010008DB010008FF
:10017000DB010008DB010008DB01000800000000D3
:10018000DB010008DB010008DB010008DB010008DF
:10019000DB010008DB010008DB010008DB010008CF
:1001A000DB010008DB010008DB010008DFF80CD0F0
:1001B00000F07AF80048004785150008F804002090
:1001C0000648804706480047FEE7FEE7FEE7FEE7F1
:1001D000FEE7FEE7FEE7FEE7FEE7FEE79111000817
:1001E000AD0100082DE9F05F0546002092469B46D0
:1001F00088460646814640241BE02846414647463D
:10020000224600F041F853465A46C01A914110D395
:1002100011461846224600F028F82D1A67EB01080F
:100220004F4622460120002100F01FF817EB00097D
:100230004E41201EA4F10104DFDC484631462A4627
:100240004346BDE8F09FD2B201E000F8012B491E01
:10025000FBD270470022F6E710B513460A46044663
:100260001946FFF7F0FF204610BD202A04DB203A94
:1002700000FA02F1002070479140C2F1200320FAF9
:1002800003F3194390407047202A04DB203A21FAF7
:1002900002F00021704721FA02F3D040C2F120029F
:1002A0009140084319467047064C074D06E0E06848
:1002B00040F0010394E8070098471034AC42F6D3AD
:1002C000FFF778FFC0160008E0160008FEE730B51B
:1002D0000468256825F480252560046863608368C8
:1002E000402B036803D099600068C26030BD9A60FB
:1002F0000068C16030BD70472DE9F0410446866D4D
:1003000090F83400002501280DD0012084F8340035
:1003100094F835700020012F07D084F834000225AE
:100320002846BDE8F0810220FBE7022784F83570FB
:1003300060652046FFF7CBFF94F85C103F208840B3
:10034000B0602068016841F01601016020684169D1
:1003500041F080014161206C20B12068016841F0CA
:10036000080101602068016841F001010160D7E7E0
:100370002DE9F84FDFF890B100224FF001084FF05F
:10038000030A4FF00F090BF1040E00BF0B6808FAC7
:1003900002F42340A3426ED14D68022D01D0122DEC
:1003A0000ED1D50800EB850CDCF820505607F70E6F
:1003B00009FA07F6B5430E69BE402E43CCF820601B
:1003C000066855000F790AFA05FC07F0030726EACC
:1003D0000C06AF40374307604E68012E05D0022E51
:1003E00003D0112E01D0122E0ED18768CE6827EAD5
:1003F0000C07AE403E4386604668A6430C79C4F3C2
:100400000014944034434460C4688E6824EA0C04A9
:10041000AE402643C6604C68E4006FD53B4C25686F
:1004200045F480452560246822F0030504F48044E7
:100430000094374C2E19D6F8084895072F0F09FA63
:1004400007F5AC43334DA84201D100252EE0324DD3
:10045000A84201D1012529E0304DA84201D1022551
:1004600024E02F4DA84201D103251FE02D4DA842C5
:1004700002D104251AE041E02B4DA84201D1052507
:1004800014E02A4DA84201D106250FE0284DA842CC
:1004900001D107250AE0274DA84201D1082505E032
:1004A000254DA84201D1092500E00A25BD4025437C
:1004B000C6F80858DBF800405D464E689C43F603DA
:1004C00000D51C432C60DEF8004075464E689C4306
:1004D000B60300D51C432C600B4D08352C684E68C4
:1004E0009C43F60200D51C432C60074D0C352C684C
:1004F0004E689C43B60200D51C432C60521C102A47
:10050000FFF444AFBDE8F88F003C0140443802409E
:100510000030014000000240000402400008024098
:10052000000C02400010024000140240001802407B
:10053000001C024000200240002402400148806864
:1005400070470000240000200248816802781144AE
:1005500081607047240000200B4810B5016841F409
:1005600000710160016841F480610160016841F43B
:1005700080710160032000F061F8002000F006F8AF
:1005800000F024F8002010BD003C024070B50D4D75
:1005900004464FF47A712878B1FBF0F00A490968F3
:1005A000B1FBF0F000F0B4FA48B9102C07D20022E9
:1005B0002146501E00F022F800206C6070BD012022
:1005C00070BD000024000020300000200A4808B55B
:1005D000016841F480410160006800F480400090AF
:1005E0000548001F016841F080510160006800F07B
:1005F0008050009008BD000044380240F0B40E4B1B
:100600001B680C46C3F30223C3F10705042D00D970
:100610000425191D072901D2002300E0DB1E012655
:1006200006FA05F1491E214099409E40761E16406B
:100630003143F0BC00F086BF0CED00E0064900F04D
:10064000070208684FF6FF03184040EA0220034AF9
:1006500010430860704700000CED00E00000FA0550
:100660002DE9F0470E46050065D0DFF81481D8F873
:100670000000F7B200F00F00B04207D288F8007017
:10068000D8F8000000F00F00B04254D128683D4C6B
:10069000810712D5400703D5206840F4E050206060
:1006A0002878000703D5206840F460402060206867
:1006B000A96820F0F000084320602878C0072DD0FA
:1006C000304968680839012812D0022813D003285D
:1006D00011D00968890700292DDA216821F003016A
:1006E00001432160FFF72AFF814641F2883A0EE07C
:1006F00009688903EFE709688901ECE7FFF71EFF46
:10070000A0EB0901514502D90320BDE8F08720681C
:10071000696800F00C00B0EB810FEFD1D8F8001041
:10072000404601F00F01B14207D90770006800F0A0
:100730000F00B04201D00120E7E72878400705D537
:100740002068E96820F4E05008432060287800071A
:1007500006D52068296920F4604040EAC100206085
:1007600000F016F82168084AC1F30311515CC84033
:10077000064908600020FFF709FF0020C5E70000D8
:10078000003C024008380240B0160008300000204B
:10079000154810B5006810F00C02144813D0144925
:1007A000042A0FD0082A0ED10F4C241F2268236878
:1007B00002F03F025B0207D52068C0F38810A0FB5F
:1007C000010106E0084610BD2168C1F38811A1FBB4
:1007D00000010023FFF706FD2168C1F30141491C18
:1007E0004900B0FBF1F010BD083802400024F400CD
:1007F00040787D012DE9F84F050076D02878DFF8A4
:10080000F8B2BE4CC00749D0DBF800105846C1F31F
:100810008101012908D00068C0F3810002280AD1B3
:10082000201D0068400206D52068800336D5686820
:100830000028E2D032E06868B0F5803F10D0B0F513
:10084000A02F206810D020F480302060206820F491
:10085000802020606868A0B1FFF770FE06460CE0BB
:10086000206840F48030F4E740F480202060F7E70F
:10087000FFF764FE801B642873D820688003F7D5D7
:100880000CE0FFF75BFE064605E000BFFFF756FEF3
:10089000801B6428F0D820688003F7D42878DFF81C
:1008A000608280074FF000093ED5DBF80010584603
:1008B00011F00C0F09D00068C0F3810002280BD1A1
:1008C0008D48001F0068400206D42068800715D5B7
:1008D000E868012809D111E0E868B8B10120C8F83A
:1008E0000000FFF72BFE064605E002E1FFF726FEBB
:1008F000801B0228C0D820688007F7D520682969A6
:1009000020F0F80040EAC10020600DE0C8F8009037
:10091000FFF714FE064604E0FFF710FE801B0228D6
:100920001FD820688007F7D42878000722D5724E98
:10093000744869696C3671B101210160FFF7FEFDF1
:10094000074604E0FFF7FAFDC01B022809D830680B
:100950008007F7D50EE0C0F80090FFF7EFFD0746DF
:1009600005E083E0FFF7EAFDC01B02287ED830686F
:100970008007F7D42878400768D5DFF87CA10027E6
:100980000AF1380ADAF80000C0000BD4DAF80010D7
:1009900041F08051CAF80010DAF80000012700F099
:1009A00080500090584E3068C00510D4306840F434
:1009B00080703060FFF7C2FD009005E0FFF7BEFDDC
:1009C0000099401A022851D83068C005F6D54A4E21
:1009D000A868683601280FD00528306810D020F0AC
:1009E00001003060306820F004003060A868B8B1C1
:1009F000FFF7A4FD00900FE0306840F00100F4E73D
:100A000040F004003060F7E7FFF798FD0099411AC5
:100A100041F28830814264D830688007F4D50EE016
:100A2000FFF78CFD009007E0FFF788FD0099411A61
:100A300041F28830814254D830688007F4D42FB115
:100A4000DAF8001021F08051CAF80010A869C0B38C
:100A5000DBF80010C1F3810102294AD00228484680
:100A600007D0C8F86000FFF769FD00E039E00546EF
:100A70003AE04746C8F86000FFF760FD064604E02C
:100A8000FFF75CFD801B02282BD820688001F7D47B
:100A9000D5E907010843A96A1C4A490802EB01414C
:100AA0006A6A41EA8211084395F82C1040EA016114
:100AB0001148001F016001203866FFF73FFD054621
:100AC00005E014E0FFF73AFD401B022809D8206832
:100AD0008001F7D50BE000BFFFF730FD401B022877
:100AE00002D90320BDE8F88F20688001F4D40020EB
:100AF000F8E70120F6E7000008380240003802401D
:100B000000004742800E4742007000400000FFFF97
:100B100010B5401EB0F1807F01D3012010BD4FF011
:100B2000E02460610F21601700F00CFD0020A0613F
:100B300007202061002010BD70B590F83C20012AEC
:100B400019D0012400F83C4F0222427050F83C3C7E
:100B50005A689D6822F070060A684968324325F099
:100B6000800529435A6050F83C2C91604470002164
:100B70000170084670BD022070BD10B5040003D09E
:100B800094F83D0010B107E0012010BD002084F86A
:100B90003C00204600F00CF8022084F83D00211DA6
:100BA000206800F01FFB012084F83D00002010BDEC
:100BB00008B501681248814208D11248016841F025
:100BC00001010160006800F001000BE00D480E4AD1
:100BD000001F914208D1016841F080010160006866
:100BE00000F08000009008BD084A9142FBD10168E6
:100BF00041F480710160006800F48070F2E7000049
:100C00000000014044380240001C00400020004029
:100C100070B5044690F83C00012817D0012584F8EF
:100C20003C50022084F83D002068826822F0770260
:100C300022F47F4282600868502830D00DDC2028E2
:100C40004DD005DC98B310283BD148E0022070BDA0
:100C5000302844D0402834D139E0602828D070288A
:100C600006D0B0F5805F2CD0B0F5005F29D10AE046
:100C7000CB68D1E90121206800F06BFB2068816816
:100C800041F0770109E0CB68D1E90121206800F04B
:100C900060FB2068816841F48041816011E0CA688E
:100CA0004968206800F02AFC5021206807E016E01F
:100CB000CA684968206800F032FC6021206800F0B2
:100CC00052FB84F83D50002084F83C0070BDCA6897
:100CD0004968206800F012FC40212068EFE7226894
:100CE00001461046EBE77047704770472DE9F04129
:100CF000044690F83D000E46022846D094F83D0088
:100D0000012805D10AB9002B5FD1022084F83D00EB
:100D10003148324D324936B1042E15D0082E36D026
:100D20000C2E22D145E0676AF863606A0564606A48
:100D3000C1642168606A3431FFF7DEFAC0BB206805
:100D4000C16841F400710FE0A76AF863A06A056406
:100D5000A06AC1642168A06A3831FFF7CDFA38BBB8
:100D60002068C16841F48061C16001223146206879
:100D700000F09CFA2068816801F00701062903D081
:100D8000016841F0010101600020BDE8F081E76ADF
:100D9000F863E06A0564E06AC1642168E06A3C3196
:100DA000FFF7AAFA20B92068C16841F40061DBE7C7
:100DB0000BE0276BF863206B0564206BC16421682E
:100DC000206B4031FFF798FA08B10120DDE7206879
:100DD000C16841F48051C7E7C71200080513000835
:100DE0004313000870B586B0044614216846FFF727
:100DF00031FA144E256800221349022309241348AE
:100E0000B54209D10D6845F020050D60096801F073
:100E10002001059181150BE00D4EB54210D10D68F2
:100E200045F020050D60096801F02001059171155C
:100E30000091CDE90132CDE903246946FFF798FA24
:100E400006B070BD001C0040303802400014024063
:100E50000020004070B5044690F83C000D46012883
:100E60000DD0012684F83C60022084F83D0042B198
:100E7000042A18D0082A2AD00C2A4DD139E00220A1
:100E800070BD206800F078FA2068816941F008019F
:100E900081612068816921F0040181612068816994
:100EA0002A69114311E0206800F096FA20688169F0
:100EB00041F4006181612068816921F48061816170
:100EC000206881692A6941EA0221816124E0206861
:100ED00000F0B8FA2068C16941F00801C1612068DA
:100EE000C16921F00401C1612068C1692A69114307
:100EF00011E0206800F0DAFA2068C16941F400616D
:100F0000C1612068C16921F48061C1612068C16943
:100F10002A6941EA0221C16184F83D60002084F819
:100F20003C0070BD10B5040003D094F83D0010B132
:100F300007E0012010BD002084F83C00204600F0AE
:100F40000CF8022084F83D00211D206800F04AF9C9
:100F5000012084F83D00002010BD704710B5044604
:100F60000068012200F0A2F90B492068884202D0F3
:100F70000A49884203D1416C41F400414164206830
:100F8000816801F00701062903D0016841F00101E1
:100F90000160002010BD000000000140000401407D
:100FA000FEE7000000B587B014216846FFF752F94C
:100FB00012480021026842F020020260026802F03A
:100FC00020020592026842F080020260026802F08C
:100FD00080020592026842F01002026000680291ED
:100FE00000F0100005904FF42850CDE9000169464B
:100FF0000348FFF7BDF907B000BD000030380240DC
:101000000010024010B588B01C216846FFF722F995
:10101000114810490024016040F23F61C0E9011409
:10102000C721C0E9031480218161FFF7A6FD0A48AA
:10103000FFF778FF602000900F20CDE90104002227
:10104000694605480494FFF705FF0348FFF7CAFE09
:1010500008B010BD001C00407400002010B588B01E
:101060001C216846FFF7F6F8124811490024016078
:1010700040F23F61C0E9011442F20F71C0E903146C
:1010800080218161FFF779FD0A48FFF74BFF60205F
:1010900000900120CDE9010400226946054804942E
:1010A000FFF7D8FE0348FFF79DFE08B010BD000013
:1010B00000200040B400002010B586B00024134882
:1010C000009401940294039404940F4905940160E0
:1010D00040F23F61C0E90114C46080210461C0E9AD
:1010E0000541FFF74AFD4FF48050009069460748DC
:1010F000FFF78EFD2020CDE9040404A90348FFF783
:101100001BFD06B010BD00000000014034000020AF
:10111000FEE7704770477047FFF716BA10B592B0F8
:1011200030216846FFF796F814210CA8FFF792F8D3
:1011300015480024016841F080510160006800F00A
:10114000805011901148016821F4404141F48041E0
:1011500001600068069400F4404011900220009065
:1011600001200390102004906846FFF743FB0F20F6
:10117000CDE90C040E940F9400210CA81094FFF7F5
:101180006FFA12B010BD00004038024000700040FD
:101190001048016841F4700101600F48016841F096
:1011A000010101600C4A00210832116002680B4BFA
:1011B0001A400260031D0A4A1A60026822F4802263
:1011C000026005480C300160024958068039086009
:1011D0007047000088ED00E000380240FFFFF6FE97
:1011E00010300024F0B50268254C264D264E274FBE
:1011F000274B4FF0804CA04209D0604507D0A84251
:1012000005D0B04203D0B84201D0984204D122F0B8
:10121000700E4A6842EA0E02A0421BD0604519D007
:10122000A84217D0B04215D0B84213D0984211D07E
:10123000184DA8420ED0184DA8420BD0174DA84209
:1012400008D0174DA84205D0164DA84202D0164D21
:10125000A84203D122F44075CA682A434D6922F09E
:1012600080022A4302608A68C2620A688262A042DF
:1012700001D0984201D10969016301214161F0BDAA
:10128000000001400004004000080040000C004045
:10129000000401400040014000440140004801407A
:1012A00000180040001C00400020004010B501F074
:1012B0001F030121046A99408C430462016A9A4029
:1012C0001143016210BD10B5846B012184F83D10FB
:1012D000626A824201D121770EE0A16A814201D186
:1012E000022008E0E16A814201D1042003E0216B81
:1012F000814201D1082020772046FFF7F5FC00202D
:10130000207710BD10B5846B012184F83D10626A0E
:10131000824201D121770EE0A16A814201D10220EF
:1013200008E0E16A814201D1042003E0216B81429F
:1013300001D1082020772046FFF7D7FC0020207736
:1013400010BD10B5806B012180F83D10FFF7CBFC7C
:1013500010BD10B5846842EA032224F47F440A4396
:101360002243826010BD826822F070020A4342F07C
:101370000701816070470000F0B5026A22F00102A7
:101380000262036A42688469124E24F073050C6895
:101390002C4323F002058B682B430D4DA84201D04E
:1013A000B04205D123F00807CB683B4323F0040388
:1013B000A84201D0B04205D14D6922F440721543D4
:1013C0008A692A4342608461496841630362F0BDCF
:1013D0000000014000040140F0B5026A22F0100252
:1013E0000262026A436884690D6824F4E64444EAB0
:1013F00005248D6822F0200242EA05120F4D104E9E
:10140000A84201D0B04206D1CF6822F0800242EA61
:10141000071222F04002A84201D0B04207D14D6924
:1014200023F4406343EA85038D6943EA85034360FF
:101430008461496881630262F0BD000000000140E0
:1014400000040140F0B5026A22F480720262026A6E
:101450004368C46922F4007224F073050C68124ECC
:101460002C438D6842EA05220E4DA84201D0B042BD
:1014700006D1CF6822F4006242EA072222F4806299
:10148000A84201D0B04207D14D6923F4405343EA4A
:1014900005138D6943EA05134360C4614968C1635C
:1014A0000262F0BD000001400004014030B5026A54
:1014B00022F480520262046A4268C3690D6823F410
:1014C000E64343EA05238D6824F4005444EA0534D6
:1014D000084DA84202D0084DA84204D14D6922F41B
:1014E000804242EA85124260C36149680164046235
:1014F00030BD0000000001400004014010B5036A47
:10150000046A24F001040462846924F0F00444EACB
:10151000021423F00A020A438461026210BD10B56E
:10152000036A23F0100303628369046A23F470439F
:1015300043EA023224F0A00343EA0111826101620E
:1015400010BDFEE70907090E002804DB00F1E020CA
:1015500080F80014704700F00F0000F1E02080F8E0
:10156000141D704702E008C8121F08C1002AFAD1F2
:1015700070477047002001E001C1121F002AFBD113
:1015800070470000FEF7E8FFFFF7C8FDFFF70AFD10
:10159000FFF764FDFFF736FDFFF78EFD00214048A1
:1015A000FFF7DCFC3E4800214038FFF7D7FC3C4801
:1015B00002233C4A00218038FFF798FB394A38481B
:1015C0000223121D04218038FFF790FB354A34486E
:1015D0000223083208218038FFF788FB3149334E57
:1015E0000C31314C31484FF6FF7C4FF0000E01F1C9
:1015F000080301F110021036256915F4285F14D094
:101600002569AD0503D50D680DB905680D6025691F
:101610002D0503D51D680DB905681D602569AD044C
:1016200003D515680DB9056815600D685DB12769AA
:10163000BF0508D40768BD420768A7EB050500D9B8
:101640006544C1E900E51D685DB127693F0508D41F
:101650000768BD420768A7EB050500D96544C3E9E3
:1016600000E515685DB12769BF0408D40768BD426D
:101670000768A7EB050500D96544C2E900E54D6898
:101680000D2D01D2142508E05D681D2D02D355688B
:101690000D2D01D20A2500E00F253560ACE70000D2
:1016A000B40000200000002000100240241C004074
:1016B0000000000000000000010203040607080902
:1016C000E016000800000020340000006415000847
:1016D0001417000834000020C4040000741500082A
:1016E00000000000000000000000000000000000FA
:1016F00000000000000000000000000000000000EA
:1017000000000000010000001000000000000000C8
:041710000024F400BD
:04000005080001AD41
:00000001FF
